:100000000C9434000C9446000C9446000C9446006A
:100010000C9446000C9446000C9446000C94460048
:100020000C9446000C9446000C9446000C94460038
:100030000C9446000C9446000C9448000C94460026
:100040000C9446000C9446000C9446000C94460018
:100050000C9446000C9446000C9446000C94460008
:100060000C9446000C94460011241FBECFEFD8E03C
:10007000DEBFCDBF21E0A0E0B1E001C01D92A43001
:10008000B207E1F70E9477000C947F000C94000007
:100090001F920F920FB60F9211248F939F93AF93DD
:1000A000BF938091000190910101A0910201B09154
:1000B00003010196A11DB11D8093000190930101E0
:1000C000A0930201B0930301BF91AF919F918F91D3
:1000D0000F900FBE0F901F90189582E084BD93E0A3
:1000E00095BD99EF97BD80936E007894089584E054
:1000F00084B98BB90E946D0080E090E00895F89477
:02010000FFCF2F
:00000001FF
