:100000000C9434000C943E000C943E000C943E0082
:100010000C943E000C943E000C943E000C943E0068
:100020000C943E000C943E000C943E000C943E0058
:100030000C943E000C943E000C943E000C943E0048
:100040000C943E000C943E000C943E000C943E0038
:100050000C943E000C943E000C943E000C943E0028
:100060000C943E000C943E0011241FBECFEFD8E04C
:10007000DEBFCDBF0E945A000C9473000C940000A8
:1000800089B18695869591E08927817090E00895E1
:100090008130910521F485B1846285B90895892B59
:1000A00019F485B18B7D85B9089584E284B984E023
:1000B0008BB908950E9455000E944000892BE1F3FE
:1000C00081E090E00E9448002AEA36EE86E991E05D
:1000D0002150304080409040D9F7000080E090E00F
:0A00E0000E944800E9CFF894FFCF1A
:00000001FF
