S026000042335F4C616E6773616D65725F426C696E6B65725F6D69745F54696D65722E7372656361
S11300000C9434000C9446000C9446000C94460066
S11300100C9446000C9446000C9446000C94460044
S11300200C9446000C9446000C9446000C94460034
S11300300C9446000C9446000C945B000C9446000F
S11300400C9446000C9446000C9446000C94460014
S11300500C9446000C9446000C9446000C94460004
S11300600C9446000C94460011241FBECFEFD8E038
S1130070DEBFCDBF21E0A0E0B1E001C01D92A630FB
S1130080B207E1F70E94B5000C94E0000C94000064
S113009080E285B984E48BB9089515B884E08BB9FE
S11300A0089582E084BD93E095BD80936E0089EF4E
S11300B087BD789408951F920F920FB60F92112462
S11300C02F933F934F935F936F937F938F939F935C
S11300D0AF93BF93EF93FF9380910201909103013B
S11300E0A0910401B0910501BC01CD016F5F7F4F68
S11300F08F4F9F4F6093020170930301809304011B
S11301009093050128EE33E040E050E00E94BE00E9
S1130110672B682B692BC1F4809100019091010138
S1130120009719F0019751F00FC00E94480081E038
S113013090E0909301018093000106C00E944D005D
S11301401092010110920001FF91EF91BF91AF91C4
S11301509F918F917F916F915F914F913F912F91DB
S11301600F900FBE0F901F90189580E284B980E421
S11301708AB984E08BB90E945100FFCFA1E21A2E04
S1130180AA1BBB1BFD010DC0AA1FBB1FEE1FFF1F37
S1130190A217B307E407F50720F0A21BB30BE40B87
S11301A0F50B661F771F881F991F1A9469F76095CE
S11301B07095809590959B01AC01BD01CF01089588
S10701C0F894FFCFDD
S9030000FC
