:100000000C9434000C9451000C9451000C94510049
:100010000C9451000C9451000C9451000C9451001C
:100020000C9451000C9451000C9451000C9451000C
:100030000C9451000C9451000C9478000C945100D5
:100040000C9451000C9451000C9451000C945100EC
:100050000C9451000C9451000C9451000C945100DC
:100060000C9451000C94510011241FBECFEFD8E026
:10007000DEBFCDBF11E0A0E0B1E0E8E8F2E002C0F1
:1000800005900D92A230B107D9F721E0A2E0B1E0CE
:1000900001C01D92A830B207E1F70E94F7000C944E
:1000A00042010C9400004A9917C02FEF81EE94E0B2
:1000B000215080409040E1F700C000004A9BFECFF5
:1000C0002FEF81EE94E0215080409040E1F700C096
:1000D000000081E090E0089580E090E0089580E2E3
:1000E00085B984E48BB9089515B884E08BB9089577
:1000F0001F920F920FB60F9211242F933F934F939D
:100100005F936F937F938F939F93AF93BF93EF937F
:10011000FF9380910001823061F018F4813031F05A
:1001200011C0833049F0843051F00CC024EF31E02D
:100130000BC024E630E008C022E330E005C02AE02E
:1001400030E002C028EE33E0809104019091050177
:10015000A0910601B0910701BC01CD016F5F7F4FF7
:100160008F4F9F4F609304017093050180930601A8
:1001700090930701032E000C440B550B0E942001A5
:10018000672B682B692BC1F48091020190910301C8
:10019000009719F0019751F00FC00E946F0081E0A5
:1001A00090E0909303018093020106C00E947400C6
:1001B0001092030110920201FF91EF91BF91AF9154
:1001C0009F918F917F916F915F914F913F912F916F
:1001D0000F900FBE0F901F90189582E084BD93E0A2
:1001E00095BD80936E0089EF87BD7894089580E275
:1001F00084B980E48AB984E08BB90E94ED0003E001
:1002000014E0D1E0C2E00E9453000197E1F7809131
:100210000001823061F018F4813031F0F4CF833086
:1002200049F0843051F0EFCFC0930001ECCF009340
:100230000001E9CF10930001E6CFD0930001E3CF96
:10024000A1E21A2EAA1BBB1BFD010DC0AA1FBB1FDA
:10025000EE1FFF1FA217B307E407F50720F0A21B4C
:10026000B30BE40BF50B661F771F881F991F1A94B9
:1002700069F760957095809590959B01AC01BD01E3
:08028000CF010895F894FFCFAF
:02028800010073
:00000001FF
