S020000045325F50574D5F6D69745F506F74656E74696F6D657465722E73726563C3
S11300000C9448000C9452000C9452000C9452002E
S11300100C9452000C9452000C9452000C94520014
S11300200C9452000C9452000C9452000C94520004
S11300300C9452000C9452000C9452000C945200F4
S11300400C9452000C9452000C9452000C945200E4
S11300500C9452000C9452000C9452000C945200D4
S11300600C9452000C94520007634236B79BD8A7F5
S11300701A39685618AEBAAB558C1D3CB7CC5763C9
S1130080BD6DEDFD753EF6177231BF000000803F77
S113009011241FBECFEFD8E0DEBFCDBF0E94880081
S11300A00C94E8030C94000080E48AB983E884BDCE
S11300B083E085BD80E887BD089580E480937C005B
S11300C087E880937A000895EAE7F0E0808180640D
S11300D08083808186FDFDCF8091780090917900A6
S11300E008950F931F93CF93C8E000E010E00E949F
S11300F06400080F191FC150D1F7C8019695879560
S11301009695879596958795CF911F910F91089510
S11301100E945D000E9454000E947100BC0180E0B6
S113012090E00E94A70121E630E84EE05BE30E94E4
S1130130FB020E94460120E030E040E85FE30E94B9
S1130140CC002EEF34E547EF51E40E94FB026B0133
S11301507C0120E030E04FE753E40E94800218164F
S11301606CF020E030E0A901C701B6010E9439011A
S1130170882364F4C12CD12C760108C00F2EC12C25
S1130180D12CFFE7EF2EF3E4FF2EF02DC701B601CB
S11301900E94780167BDC0CF5058BB27AA270E9490
S11301A0E4000C9446020E94380238F00E943F0298
S11301B020F039F49F3F19F426F40C940E020EF447
S11301C0E095E7FB0C940802E92F0E94570258F3CC
S11301D0BA17620773078407950720F079F4A6F528
S11301E00C9479020EF4E0950B2EBA2FA02D0B017E
S11301F0B90190010C01CA01A0011124FF27591B68
S113020099F0593F50F4503E68F11A16F040A22F6D
S1130210232F342F4427585FF3CF469537952795DE
S1130220A795F0405395C9F77EF41F16BA0B620BDD
S1130230730B840BBAF09150A1F0FF0FBB1F661F24
S1130240771F881FC2F70EC0BA0F621F731F841F67
S113025048F4879577956795B795F7959E3F08F08D
S1130260B0CF9395880F08F09927EE0F979587954F
S113027008950E94E40108F481E0089529F416F039
S11302800C9408020C9479020C940E020E945F02F2
S1130290A8F39638A0F707F80F92E8942BE33AEA0C
S11302A048EB5FE70E9411030F920F920F924DB734
S11302B05EB70F920E94C702E8E6F0E00E941102C6
S11302C04F915F91EF91FF91E595EE1FFF1F49F06C
S11302D0FE57E0684427EE0F441FFA95E1F7419575
S11302E0550B0E9491020F9007FE0C94850208950D
S11302F00E945F0288F09F5798F0B92F9927B75151
S1130300B0F0E1F0660F771F881F991F1AF0BA95B5
S1130310C9F714C0B13091F00E947902B1E0089598
S11303200C947902672F782F8827B85F39F0B93F8A
S1130330CCF3869577956795B395D9F73EF4909568
S11303408095709561957F4F8F4F9F4F0895E894E6
S113035009C097FB3EF490958095709561957F4F09
S11303608F4F9F4F9923A9F0F92F96E9BB279395B7
S1130370F695879577956795B795F111F8CFFAF4C7
S1130380BB0F11F460FF1BC06F5F7F4F8F4F9F4FF8
S113039016C0882311F096E911C0772321F09EE856
S11303A0872F762F05C0662371F096E8862F70E0BC
S11303B060E02AF09A95660F771F881FDAF7880F96
S11303C09695879597F90895990F0008550FAA0BEC
S11303D0E0E8FEEF16161706E807F907C0F0121654
S11303E01306E407F50798F0621B730B840B950B57
S11303F039F40A2661F0232B242B252B21F40895AC
S11304000A2609F4A140A6958FEF811D811D089548
S113041097F99F6780E870E060E008959FEF80ECB3
S11304200895DF93CF931F930F93FF92EF92DF9280
S11304307B018C01689406C0DA2EEF010E940E0342
S1130440FE01E894A5912591359145915591A6F326
S1130450EF010E94E400FE019701A801DA9469F714
S1130460DF90EF90FF900F911F91CF91DF9108954E
S113047000240A941616170618060906089500247F
S11304800A9412161306140605060895092E0394F9
S1130490000C11F4882352F0BB0F40F4BF2B11F46D
S11304A060FF04C06F5F7F4F8F4F9F4F089557FDCC
S11304B09058440F551F59F05F3F71F04795880FCE
S11304C097FB991F61F09F3F79F087950895121665
S11304D013061406551FF2CF4695F1DF08C0161611
S11304E017061806991FF1CF8695710561050894C2
S11304F00895E894BB2766277727CB0197F90895D9
S11305000E94E40108F48FEF08959B01AC0160E0C0
S113051070E080E89FE30C9468030C9408020C9448
S1130520DA030E945F02D8F39923C9F3940F511D93
S1130530A3F39150504094F059F0882332F0660FA1
S1130540771F881F91505040C1F79E3F51052CF7EB
S1130550880F911D9695879597F908955F3FACF0A4
S1130560983E9CF0BB27869577956795B79508F4D8
S1130570B1609395C1F7BB0F58F711F460FFE8CF52
S11305806F5F7F4F8F4F9F4FE3CF0C947A02FA0136
S1130590DC01AA0FBB1F9B01AC01BF5728F4222723
S11305A033274427507820C0B75190F4AB2F002450
S11305B0469537952795011CA395D2F3002071F039
S11305C0220F331F441FB395DAF30ED00C94CC00E2
S11305D061307105A0E88A07B94630F49B01AC018B
S11305E06627772788279078309621F020833183F7
S11305F04283538308950E940E030C9446020E9482
S1130600380238F00E943F0220F0952311F00C9438
S113061008020C940E0211240C947A020E945702D0
S113062070F3959FC1F3950F50E0551F629FF00141
S1130630729FBB27F00DB11D639FAA27F00DB11D5A
S1130640AA1F649F6627B00DA11D661F829F2227E3
S1130650B00DA11D621F739FB00DA11D621F839F6A
S1130660A00D611D221F749F3327A00D611D231F40
S1130670849F600D211D822F762F6A2F11249F578E
S113068050409AF0F1F088234AF0EE0FFF1FBB1F91
S1130690661F771F881F91505040A9F79E3F510550
S11306A080F00C9408020C947A025F3FE4F3983EC5
S11306B0D4F3869577956795B795F795E7959F5FFA
S11306C0C1F7FE2B880F911D9695879597F908958C
S11306D00E947C030C9446020E943F0258F00E9440
S11306E0380240F029F45F3F29F00C9408025111BC
S11306F00C947A020C940E020E94570268F3992318
S1130700B1F3552391F3951B550BBB27AA27621709
S11307107307840738F09F5F5F4F220F331F441F16
S1130720AA1FA9F335D00E2E3AF0E0E832D091504A
S11307305040E695001CCAF72BD0FE2F29D0660F37
S1130740771F881FBB1F261737074807AB07B0E87A
S113075009F0BB0B802DBF01FF2793585F4F3AF080
S11307609E3F510578F00C9408020C947A025F3F86
S1130770E4F3983ED4F3869577956795B795F79506
S11307809F5FC9F7880F911D9695879597F90895EE
S1130790E1E0660F771F881FBB1F6217730784078A
S11307A0BA0720F0621B730B840BBA0BEE1F88F799
S11307B0E09508959F3F31F0915020F48795779507
S11307C06795B795880F911D9695879597F9089524
S10707D0F894FFCFC7
S9030000FC
