:100000000C9434000C9446000C9446000C9446006A
:100010000C9446000C9446000C9446000C94460048
:100020000C9446000C9446000C9446000C94460038
:100030000C9446000C9446000C9463000C9446000B
:100040000C9446000C9446000C9446000C94460018
:100050000C9446000C9446000C9446000C94460008
:100060000C9446000C94460011241FBECFEFD8E03C
:10007000DEBFCDBF21E0A0E0B1E001C01D92A630FF
:10008000B207E1F70E94C6000C94F1000C94000046
:1000900089B18695869591E08927817090E00895D1
:1000A00080E285B984E48BB9089515B884E08BB9F2
:1000B000089582E084BD93E095BD80936E0089EF42
:1000C00087BD789408951F920F920FB60F92112456
:1000D0002F933F934F935F936F937F938F939F9350
:1000E000AF93BF93EF93FF930E944800019719F4D9
:1000F00024E630E002C028EE33E0809102019091C6
:100100000301A0910401B0910501BC01CD016F5F15
:100110007F4F8F4F9F4F6093020170930301809335
:10012000040190930501032E000C440B550B0E9413
:10013000CF00672B682B692BC1F48091000190914F
:100140000101009719F0019751F00FC00E94500073
:1001500081E090E0909301018093000106C00E942D
:1001600055001092010110920001FF91EF91BF9193
:10017000AF919F918F917F916F915F914F913F913F
:100180002F910F900FBE0F901F90189580E284B9A9
:1001900080E48AB984E08BB90E945900FFCFA1E2C4
:1001A0001A2EAA1BBB1BFD010DC0AA1FBB1FEE1FF1
:1001B000FF1FA217B307E407F50720F0A21BB30B3C
:1001C000E40BF50B661F771F881F991F1A9469F7B8
:1001D00060957095809590959B01AC01BD01CF0114
:0601E0000895F894FFCF22
:00000001FF
