:100000000C9434000C9451000C9451000C94510049
:100010000C9451000C9451000C9451000C9451001C
:100020000C9451000C9451000C9451000C9451000C
:100030000C9451000C9451000C945D000C945100F0
:100040000C9451000C9451000C9451000C945100EC
:100050000C9451000C9451000C9451000C945100DC
:100060000C9451000C94510011241FBECFEFD8E026
:10007000DEBFCDBF11E0A0E0B1E0E4E0F3E002C0FC
:1000800005900D92AA30B107D9F721E0AAE0B1E0BE
:1000900001C01D92AF30B207E1F70E94F5000C9449
:1000A00080010C94000082E084BD93E095BD8093B4
:1000B0006E0089EF87BD789408951F920F920FB656
:1000C0000F9211242F933F934F935F936F937F93DE
:1000D0008F939F93AF93BF93EF93FF9380910B0107
:1000E00090910C01A0910D01B0910E01BC01CD01C8
:1000F0006F5F7F4F8F4F9F4F60930B0170930C0189
:1001000080930D0190930E0124E630E040E050E032
:100110000E944F01672B682B692B19F481E08093B3
:100120000A01FF91EF91BF91AF919F918F917F91C4
:100130006F915F914F913F912F910F900FBE0F9054
:100140001F90189580E480937C0087E880937A0064
:100150000895EAE7F0E0808180648083808186FDF5
:10016000FDCF809178009091790008950F931F93AF
:10017000CF93C8E000E010E00E94A900080F191F0B
:10018000C150D1F7C8019695879596958795969514
:100190008795CF911F910F9108958093C4009093FC
:1001A000C50088E18093C10086E08093C200089575
:1001B000E0ECF0E0908195FFFDCF8093C6000895BC
:1001C000CF93DF93EC018881882331F021960E9440
:1001D000D80089918111FBCF8DE00E94D8008AE080
:1001E0000E94D800DF91CF910895CF93DF93CDB7D0
:1001F000DEB72A970FB6F894DEBF0FBECDBF8AE0F8
:10020000E0E0F1E0DE01119601900D928A95E1F7B0
:1002100087E690E00E94CD000E94A2000E94530059
:100220000F2E88248A94F3E09F2EA12CB12CF02D60
:100230000F2EFAE0CF2ED12CE12CF12CF02D809155
:100240000A018130E1F70E94B6009C01A4EFB1E001
:100250000E947101A50194010E944F01CA01B901D8
:10026000A70196010E944F0180E3860F8C83CA018B
:10027000B901A70196010E944F0180E3860F8B838D
:10028000CA01B901A70196010E944F01605D69830F
:10029000CE0101960E94E00010920A01D0CFA1E2A7
:1002A0001A2EAA1BBB1BFD010DC0AA1FBB1FEE1FF0
:1002B000FF1FA217B307E407F50720F0A21BB30B3B
:1002C000E40BF50B661F771F881F991F1A9469F7B7
:1002D00060957095809590959B01AC01BD01CF0113
:1002E0000895A29FB001B39FC001A39F700D811D0F
:1002F0001124911DB29F700D811D1124911D08952F
:04030000F894FFCF9F
:0A030400302E303020566F6C74006C
:00000001FF
