:100000000C9434000C943E000C943E000C943E0082
:100010000C943E000C943E000C943E000C943E0068
:100020000C943E000C943E000C943E000C943E0058
:100030000C943E000C943E000C943E000C943E0048
:100040000C943E000C943E000C943E000C943E0038
:100050000C943E000C943E000C943E000C943E0028
:100060000C943E000C943E0011241FBECFEFD8E04C
:10007000DEBFCDBF0E9440000C945C000C940000D9
:1000800080E284B980E48AB990E295B98BB92FEF08
:1000900039E648E1215030404040E1F700C000001F
:1000A00015B81BB82FEF39E648E1215030404040E9
:0C00B000E1F700C00000E9CFF894FFCF9A
:00000001FF
