:100000000C9434000C9451000C9451000C94510049
:100010000C9451000C9451000C9451000C9451001C
:100020000C9451000C9451000C9451000C9451000C
:100030000C9451000C9451000C9453000C945100FA
:100040000C9451000C9451000C9451000C945100EC
:100050000C9451000C9451000C9451000C945100DC
:100060000C9451000C94510011241FBECFEFD8E026
:10007000DEBFCDBF11E0A0E0B1E0E4E2F1E002C0FC
:1000800005900D92AA32B107D9F721E0AAE2B1E0BA
:1000900001C01D92AB32B207E1F70E948D000C94B3
:1000A00090000C9400001F920F920FB60F92112433
:1000B0008F93EF93FF93E0912A010E2E000CFF0B1C
:1000C000E050FF4F8081813009F4599AE0912A0174
:1000D0000E2E000CFF0BE050FF4F8081811101C0FC
:1000E0005998E0912A01EF5FE0932A010E2E000C4F
:1000F000FF0BE050FF4F80818F3F11F410922A01D7
:10010000FF91EF918F910F900FBE0F901F90189558
:100110001092C10082E08AB908950E948800FFCF42
:04012000F894FFCF81
:1001240000000000010000010001000100010100C5
:1001340000010001010101010101010101010101AD
:0A0144000101010101010101FF00AA
:00000001FF
