:100000000C9434000C9449000C9449000C94490061
:100010000C9449000C9449000C9449000C9449003C
:100020000C9449000C9449000C9449000C9449002C
:100030000C9449000C9449000C9449000C9449001C
:100040000C9449000C9449000C9449000C9449000C
:100050000C9449000C9449000C9449000C944900FC
:100060000C9449000C94490011241FBECFEFD8E036
:10007000DEBFCDBF11E0A0E0B1E0E2E4F1E002C0FC
:1000800005900D92AA36B107D9F70E947B000C9417
:100090009F000C9400008093C4009093C50088E1F9
:1000A0008093C10086E08093C2000895E0ECF0E008
:1000B000908195FFFDCF8093C6000895E0ECF0E0BD
:1000C00080818823ECF78091C6000895CF93DF9359
:1000D000EC018881882331F021960E945600899195
:1000E0008111FBCF8DE00E9456008AE00E945600ED
:1000F000DF91CF91089580E284B980E48AB987E6E0
:1001000090E00E944B0080E091E00E94660081E355
:1001100091E00E9466000E945E00813339F42D9ABE
:100120005E9A82E691E00E946600F5CF803399F7EF
:100130002D985E9886E691E00E946600ECCFF894D8
:02014000FFCFEF
:100142004C657563687464696F64656E2065696E79
:10015200736368616C74656E2028312920756E6442
:1001620020617573736368616C74656E2028302931
:10017200003D3D3D3D3D3D3D3D3D3D3D3D3D3D3DEA
:100182003D3D3D3D3D3D3D3D3D3D3D3D3D3D3D3D9D
:100192003D3D3D3D3D3D3D3D3D3D3D3D3D3D3D3D8D
:0A01A2003D0045494E004155530051
:00000001FF
