S028000047315F5472657070656E6C696368745F6D69745F4E61636864727565636B656E2E7372656360
S11300000C9434000C9446000C9446000C94460066
S11300100C9446000C9446000C9446000C94460044
S11300200C9446000C9446000C9446000C94460034
S11300300C9446000C9446000C9448000C94460022
S11300400C9446000C9446000C9446000C94460014
S11300500C9446000C9446000C9446000C94460004
S11300600C9446000C94460011241FBECFEFD8E038
S1130070DEBFCDBF21E0A0E0B1E001C01D92A430FD
S1130080B207E1F70E9493000C9429010C9400003C
S11300901F920F920FB60F9211248F939F93AF93D9
S11300A0BF938091000190910101A0910201B09150
S11300B003010196A11DB11D8093000190930101DC
S11300C0A0930201B0930301BF91AF919F918F91CF
S11300D00F900FBE0F901F901895F8946091000137
S11300E07091010180910201909103017894089527
S11300F082E084BD93E095BD99EF97BD80936E0037
S11301007894089589B18695869591E089278170C0
S113011090E008958130910511F42A9A0895892B6D
S113012009F42A98089584E084B98BB90E94780070
S1130130C12CD12C7601C1E003E00F2EFAEF8F2EF3
S1130140912CA12CB12CF02D11E0D2E0C23091F011
S1130150C33061F1C130D1F70E948200892BB1F321
S11301600E946D006B017C0181E090E00E948A0096
S1130170CD2FECCF0E948200892B29F00E946D00C4
S11301806B017C01E3CF0E946D00DC01CB018C1973
S11301909D09AE09BF0989399A43A105B105B0F299
S11301A00E946D006B017C01C02FD0CF0E948200A1
S11301B0892B51F00E946D006B017C0181E090E07D
S11301C00E948A00CD2FC2CF0E946D00DC01CB01BA
S11301D08C199D09AE09BF0989389341A105B10560
S11301E030F080E090E00E948A00C12FAFCF0E94DF
S11301F06D006C197D098E099F09A50194010E9467
S11302000701C901817099270E948A009FCFA1E24A
S11302101A2EAA1BBB1BFD010DC0AA1FBB1FEE1F7C
S1130220FF1FA217B307E407F50720F0A21BB30BC7
S1130230E40BF50B661F771F881F991F1A9469F743
S113024060957095809590959B01AC01BD01CF019F
S10902500895F894FFCFAD
S9030000FC
