:100000000C9434000C943E000C943E000C943E0082
:100010000C943E000C943E000C943E000C943E0068
:100020000C943E000C943E000C943E000C943E0058
:100030000C943E000C943E000C943E000C943E0048
:100040000C943E000C943E000C943E000C943E0038
:100050000C943E000C943E000C943E000C943E0028
:100060000C943E000C943E0011241FBECFEFD8E04C
:10007000DEBFCDBF0E9451000C9472000C940000B2
:1000800080E285B984E48BB9089515B884E08BB912
:10009000089589B18695869591E08927817090E0D1
:1000A000089580E284B980E48AB984E08BB90E9423
:1000B0004900892BE1F30E9440002FEF81EE94E08C
:1000C000215080409040E1F700C000000E944500B0
:1000D0002FEF81EE94E0215080409040E1F700C086
:0800E0000000E5CFF894FFCF0A
:00000001FF
