:100000000C9434000C9446000C9446000C9446006A
:100010000C9446000C9446000C9446000C94460048
:100020000C9446000C9446000C9446000C94460038
:100030000C9446000C9446000C9446000C94460028
:100040000C9448000C9446000C9446000C94460016
:100050000C9446000C9446000C9446000C94460008
:100060000C9446000C94460011241FBECFEFD8E03C
:10007000DEBFCDBF21E0A0E0B1E001C01D92A03005
:10008000B207E1F70E945F000C9462000C9400003C
:100090001F920F920FB60F9211240F900FBE0F9068
:1000A0001F90189580E48AB983E884BD84E085BDFB
:1000B000EEE6F0E0808181608083789408950E946C
:0800C0005200FFCFF894FFCFBE
:00000001FF
