S011000041335F5461737465722E73726563CD
S11300000C9434000C943E000C943E000C943E007E
S11300100C943E000C943E000C943E000C943E0064
S11300200C943E000C943E000C943E000C943E0054
S11300300C943E000C943E000C943E000C943E0044
S11300400C943E000C943E000C943E000C943E0034
S11300500C943E000C943E000C943E000C943E0024
S11300600C943E000C943E0011241FBECFEFD8E048
S1130070DEBFCDBF0E9440000C9451000C940000E0
S113008080E284B980E48AB984E08BB924E090E208
S113009084E44A9903C095B98BB9FBCF15B82BB941
S10900A0F8CFF894FFCF35
S9030000FC
